{
  "_format": "hh-sol-artifact-1",
  "contractName": "OceanDaoTreasury",
  "sourceName": "contracts/OceanDaoTreasury.sol",
  "abi": [
    {
      "inputs": [
        {
          "internalType": "address",
          "name": "_verifierWallet",
          "type": "address"
        }
      ],
      "stateMutability": "nonpayable",
      "type": "constructor"
    },
    {
      "anonymous": false,
      "inputs": [
        {
          "indexed": true,
          "internalType": "address",
          "name": "recipient",
          "type": "address"
        },
        {
          "indexed": false,
          "internalType": "uint256",
          "name": "amount",
          "type": "uint256"
        },
        {
          "indexed": false,
          "internalType": "string",
          "name": "projectName",
          "type": "string"
        },
        {
          "indexed": false,
          "internalType": "uint256",
          "name": "roundNumber",
          "type": "uint256"
        },
        {
          "indexed": false,
          "internalType": "address",
          "name": "caller",
          "type": "address"
        },
        {
          "indexed": false,
          "internalType": "uint256",
          "name": "timestamp",
          "type": "uint256"
        }
      ],
      "name": "GrantClaimed",
      "type": "event"
    },
    {
      "anonymous": false,
      "inputs": [
        {
          "indexed": true,
          "internalType": "address",
          "name": "previousOwner",
          "type": "address"
        },
        {
          "indexed": true,
          "internalType": "address",
          "name": "newOwner",
          "type": "address"
        }
      ],
      "name": "OwnershipTransferred",
      "type": "event"
    },
    {
      "anonymous": false,
      "inputs": [
        {
          "indexed": true,
          "internalType": "address",
          "name": "sender",
          "type": "address"
        },
        {
          "indexed": false,
          "internalType": "uint256",
          "name": "amount",
          "type": "uint256"
        },
        {
          "indexed": false,
          "internalType": "address",
          "name": "token",
          "type": "address"
        }
      ],
      "name": "TreasuryDeposit",
      "type": "event"
    },
    {
      "anonymous": false,
      "inputs": [
        {
          "indexed": true,
          "internalType": "address",
          "name": "sender",
          "type": "address"
        },
        {
          "indexed": false,
          "internalType": "uint256",
          "name": "amount",
          "type": "uint256"
        },
        {
          "indexed": false,
          "internalType": "address",
          "name": "token",
          "type": "address"
        }
      ],
      "name": "TreasuryWithdraw",
      "type": "event"
    },
    {
      "anonymous": false,
      "inputs": [
        {
          "indexed": false,
          "internalType": "address",
          "name": "oldVerifierWallet",
          "type": "address"
        }
      ],
      "name": "VerifierWalletSet",
      "type": "event"
    },
    {
      "inputs": [
        {
          "internalType": "address",
          "name": "_verifierWallet",
          "type": "address"
        }
      ],
      "name": "changeVerifierWallet",
      "outputs": [],
      "stateMutability": "nonpayable",
      "type": "function"
    },
    {
      "inputs": [
        {
          "internalType": "uint256",
          "name": "roundNumber",
          "type": "uint256"
        },
        {
          "internalType": "address",
          "name": "recipient",
          "type": "address"
        },
        {
          "internalType": "string",
          "name": "projectName",
          "type": "string"
        },
        {
          "internalType": "uint256",
          "name": "timestamp",
          "type": "uint256"
        },
        {
          "internalType": "uint256",
          "name": "amount",
          "type": "uint256"
        },
        {
          "internalType": "address",
          "name": "tokenAddress",
          "type": "address"
        },
        {
          "internalType": "uint8",
          "name": "v",
          "type": "uint8"
        },
        {
          "internalType": "bytes32",
          "name": "r",
          "type": "bytes32"
        },
        {
          "internalType": "bytes32",
          "name": "s",
          "type": "bytes32"
        }
      ],
      "name": "claimGrant",
      "outputs": [],
      "stateMutability": "nonpayable",
      "type": "function"
    },
    {
      "inputs": [
        {
          "internalType": "address",
          "name": "token",
          "type": "address"
        },
        {
          "internalType": "uint256",
          "name": "amount",
          "type": "uint256"
        }
      ],
      "name": "fundTreasury",
      "outputs": [],
      "stateMutability": "payable",
      "type": "function"
    },
    {
      "inputs": [
        {
          "internalType": "bytes32",
          "name": "",
          "type": "bytes32"
        }
      ],
      "name": "isGrantClaimed",
      "outputs": [
        {
          "internalType": "bool",
          "name": "",
          "type": "bool"
        }
      ],
      "stateMutability": "view",
      "type": "function"
    },
    {
      "inputs": [],
      "name": "owner",
      "outputs": [
        {
          "internalType": "address",
          "name": "",
          "type": "address"
        }
      ],
      "stateMutability": "view",
      "type": "function"
    },
    {
      "inputs": [],
      "name": "renounceOwnership",
      "outputs": [],
      "stateMutability": "nonpayable",
      "type": "function"
    },
    {
      "inputs": [
        {
          "internalType": "address",
          "name": "newOwner",
          "type": "address"
        }
      ],
      "name": "transferOwnership",
      "outputs": [],
      "stateMutability": "nonpayable",
      "type": "function"
    },
    {
      "inputs": [],
      "name": "verifierWallet",
      "outputs": [
        {
          "internalType": "address",
          "name": "",
          "type": "address"
        }
      ],
      "stateMutability": "view",
      "type": "function"
    },
    {
      "inputs": [
        {
          "internalType": "uint256",
          "name": "amount",
          "type": "uint256"
        },
        {
          "internalType": "address",
          "name": "token",
          "type": "address"
        }
      ],
      "name": "withdrawFunds",
      "outputs": [],
      "stateMutability": "nonpayable",
      "type": "function"
    }
  ],
  "bytecode": "0x60806040523480156200001157600080fd5b5060405162001e1838038062001e188339818101604052810190620000379190620002a9565b620000576200004b6200006f60201b60201c565b6200007760201b60201c565b62000068816200013b60201b60201c565b50620003d4565b600033905090565b60008060009054906101000a900473ffffffffffffffffffffffffffffffffffffffff169050816000806101000a81548173ffffffffffffffffffffffffffffffffffffffff021916908373ffffffffffffffffffffffffffffffffffffffff1602179055508173ffffffffffffffffffffffffffffffffffffffff168173ffffffffffffffffffffffffffffffffffffffff167f8be0079c531659141344cd1fd0a4f28419497f9722a3daafe3b4186f6b6457e060405160405180910390a35050565b6200014b6200006f60201b60201c565b73ffffffffffffffffffffffffffffffffffffffff16620001716200026960201b60201c565b73ffffffffffffffffffffffffffffffffffffffff1614620001ca576040517f08c379a0000000000000000000000000000000000000000000000000000000008152600401620001c1906200032a565b60405180910390fd5b80600160006101000a81548173ffffffffffffffffffffffffffffffffffffffff021916908373ffffffffffffffffffffffffffffffffffffffff1602179055507fe9fce1708a0d4ab53eb3bdb7a361e272a86eb35584f5baef54fa0b56f4930487600160009054906101000a900473ffffffffffffffffffffffffffffffffffffffff166040516200025e91906200030d565b60405180910390a150565b60008060009054906101000a900473ffffffffffffffffffffffffffffffffffffffff16905090565b600081519050620002a381620003ba565b92915050565b600060208284031215620002bc57600080fd5b6000620002cc8482850162000292565b91505092915050565b620002e0816200035d565b82525050565b6000620002f56020836200034c565b9150620003028262000391565b602082019050919050565b6000602082019050620003246000830184620002d5565b92915050565b600060208201905081810360008301526200034581620002e6565b9050919050565b600082825260208201905092915050565b60006200036a8262000371565b9050919050565b600073ffffffffffffffffffffffffffffffffffffffff82169050919050565b7f4f776e61626c653a2063616c6c6572206973206e6f7420746865206f776e6572600082015250565b620003c5816200035d565b8114620003d157600080fd5b50565b611a3480620003e46000396000f3fe6080604052600436106100865760003560e01c8063744bfe6111610059578063744bfe61146101335780638da5cb5b1461015c578063bfd267d814610187578063cd88a6a8146101b0578063f2fde38b146101cc57610086565b806314e108261461008b5780635fe885cd146100b45780636be5be04146100df578063715018a61461011c575b600080fd5b34801561009757600080fd5b506100b260048036038101906100ad9190610f70565b6101f5565b005b3480156100c057600080fd5b506100c961047d565b6040516100d691906112ec565b60405180910390f35b3480156100eb57600080fd5b5061010660048036038101906101019190610f0b565b6104a3565b6040516101139190611367565b60405180910390f35b34801561012857600080fd5b506101316104c3565b005b34801561013f57600080fd5b5061015a60048036038101906101559190610f34565b61054b565b005b34801561016857600080fd5b506101716106a9565b60405161017e91906112ec565b60405180910390f35b34801561019357600080fd5b506101ae60048036038101906101a99190610e7d565b6106d2565b005b6101ca60048036038101906101c59190610ea6565b6107eb565b005b3480156101d857600080fd5b506101f360048036038101906101ee9190610e7d565b61086c565b005b621275008661020491906115ff565b421115610246576040517f08c379a000000000000000000000000000000000000000000000000000000000815260040161023d90611409565b60405180910390fd5b60008989898989604051602001610261959493929190611291565b604051602081830303815290604052805190602001209050600015156002600083815260200190815260200160002060009054906101000a900460ff161515146102e0576040517f08c379a00000000000000000000000000000000000000000000000000000000081526004016102d790611449565b60405180910390fd5b6000600182868686604051600081526020016040526040516103059493929190611382565b6020604051602081039080840390855afa158015610327573d6000803e3d6000fd5b505050602060405103519050600160009054906101000a900473ffffffffffffffffffffffffffffffffffffffff1673ffffffffffffffffffffffffffffffffffffffff168173ffffffffffffffffffffffffffffffffffffffff16146103c3576040517f08c379a00000000000000000000000000000000000000000000000000000000081526004016103ba906114c9565b60405180910390fd5b60016002600084815260200190815260200160002060006101000a81548160ff0219169083151502179055508973ffffffffffffffffffffffffffffffffffffffff167f6a8d868472d79ff860666ce8246bd96acf79f60a2ea010feebee77b46e0996e8888b8e334260405161043d959493929190611512565b60405180910390a26104708a888873ffffffffffffffffffffffffffffffffffffffff166109649092919063ffffffff16565b5050505050505050505050565b600160009054906101000a900473ffffffffffffffffffffffffffffffffffffffff1681565b60026020528060005260406000206000915054906101000a900460ff1681565b6104cb6109ea565b73ffffffffffffffffffffffffffffffffffffffff166104e96106a9565b73ffffffffffffffffffffffffffffffffffffffff161461053f576040517f08c379a000000000000000000000000000000000000000000000000000000000815260040161053690611469565b60405180910390fd5b61054960006109f2565b565b6105536109ea565b73ffffffffffffffffffffffffffffffffffffffff166105716106a9565b73ffffffffffffffffffffffffffffffffffffffff16146105c7576040517f08c379a00000000000000000000000000000000000000000000000000000000081526004016105be90611469565b60405180910390fd5b8073ffffffffffffffffffffffffffffffffffffffff1663a9059cbb33846040518363ffffffff1660e01b815260040161060292919061133e565b602060405180830381600087803b15801561061c57600080fd5b505af1158015610630573d6000803e3d6000fd5b505050506040513d601f19601f820116820180604052508101906106549190610ee2565b503373ffffffffffffffffffffffffffffffffffffffff167ff0a1bb64bfbf68f7cf8185f0d03ca235cbc1ba73b0eac8ff362d176315ac4ca8838360405161069d9291906114e9565b60405180910390a25050565b60008060009054906101000a900473ffffffffffffffffffffffffffffffffffffffff16905090565b6106da6109ea565b73ffffffffffffffffffffffffffffffffffffffff166106f86106a9565b73ffffffffffffffffffffffffffffffffffffffff161461074e576040517f08c379a000000000000000000000000000000000000000000000000000000000815260040161074590611469565b60405180910390fd5b80600160006101000a81548173ffffffffffffffffffffffffffffffffffffffff021916908373ffffffffffffffffffffffffffffffffffffffff1602179055507fe9fce1708a0d4ab53eb3bdb7a361e272a86eb35584f5baef54fa0b56f4930487600160009054906101000a900473ffffffffffffffffffffffffffffffffffffffff166040516107e091906112ec565b60405180910390a150565b6108183330838573ffffffffffffffffffffffffffffffffffffffff16610ab6909392919063ffffffff16565b3373ffffffffffffffffffffffffffffffffffffffff167fb906cc5fba109fdcd8c55ad082c1408b0cc5f0a7fa925bd9424f47816bafaf1882846040516108609291906114e9565b60405180910390a25050565b6108746109ea565b73ffffffffffffffffffffffffffffffffffffffff166108926106a9565b73ffffffffffffffffffffffffffffffffffffffff16146108e8576040517f08c379a00000000000000000000000000000000000000000000000000000000081526004016108df90611469565b60405180910390fd5b600073ffffffffffffffffffffffffffffffffffffffff168173ffffffffffffffffffffffffffffffffffffffff161415610958576040517f08c379a000000000000000000000000000000000000000000000000000000000815260040161094f906113e9565b60405180910390fd5b610961816109f2565b50565b6109e58363a9059cbb60e01b848460405160240161098392919061133e565b604051602081830303815290604052907bffffffffffffffffffffffffffffffffffffffffffffffffffffffff19166020820180517bffffffffffffffffffffffffffffffffffffffffffffffffffffffff8381831617835250505050610b3f565b505050565b600033905090565b60008060009054906101000a900473ffffffffffffffffffffffffffffffffffffffff169050816000806101000a81548173ffffffffffffffffffffffffffffffffffffffff021916908373ffffffffffffffffffffffffffffffffffffffff1602179055508173ffffffffffffffffffffffffffffffffffffffff168173ffffffffffffffffffffffffffffffffffffffff167f8be0079c531659141344cd1fd0a4f28419497f9722a3daafe3b4186f6b6457e060405160405180910390a35050565b610b39846323b872dd60e01b858585604051602401610ad793929190611307565b604051602081830303815290604052907bffffffffffffffffffffffffffffffffffffffffffffffffffffffff19166020820180517bffffffffffffffffffffffffffffffffffffffffffffffffffffffff8381831617835250505050610b3f565b50505050565b6000610ba1826040518060400160405280602081526020017f5361666545524332303a206c6f772d6c6576656c2063616c6c206661696c65648152508573ffffffffffffffffffffffffffffffffffffffff16610c069092919063ffffffff16565b9050600081511115610c015780806020019051810190610bc19190610ee2565b610c00576040517f08c379a0000000000000000000000000000000000000000000000000000000008152600401610bf7906114a9565b60405180910390fd5b5b505050565b6060610c158484600085610c1e565b90509392505050565b606082471015610c63576040517f08c379a0000000000000000000000000000000000000000000000000000000008152600401610c5a90611429565b60405180910390fd5b610c6c85610d32565b610cab576040517f08c379a0000000000000000000000000000000000000000000000000000000008152600401610ca290611489565b60405180910390fd5b6000808673ffffffffffffffffffffffffffffffffffffffff168587604051610cd4919061127a565b60006040518083038185875af1925050503d8060008114610d11576040519150601f19603f3d011682016040523d82523d6000602084013e610d16565b606091505b5091509150610d26828286610d45565b92505050949350505050565b600080823b905060008111915050919050565b60608315610d5557829050610da5565b600083511115610d685782518084602001fd5b816040517f08c379a0000000000000000000000000000000000000000000000000000000008152600401610d9c91906113c7565b60405180910390fd5b9392505050565b6000610dbf610dba84611591565b61156c565b905082815260208101848484011115610dd757600080fd5b610de28482856116b4565b509392505050565b600081359050610df98161198b565b92915050565b600081519050610e0e816119a2565b92915050565b600081359050610e23816119b9565b92915050565b600082601f830112610e3a57600080fd5b8135610e4a848260208601610dac565b91505092915050565b600081359050610e62816119d0565b92915050565b600081359050610e77816119e7565b92915050565b600060208284031215610e8f57600080fd5b6000610e9d84828501610dea565b91505092915050565b60008060408385031215610eb957600080fd5b6000610ec785828601610dea565b9250506020610ed885828601610e53565b9150509250929050565b600060208284031215610ef457600080fd5b6000610f0284828501610dff565b91505092915050565b600060208284031215610f1d57600080fd5b6000610f2b84828501610e14565b91505092915050565b60008060408385031215610f4757600080fd5b6000610f5585828601610e53565b9250506020610f6685828601610dea565b9150509250929050565b60008060008060008060008060006101208a8c031215610f8f57600080fd5b6000610f9d8c828d01610e53565b9950506020610fae8c828d01610dea565b98505060408a013567ffffffffffffffff811115610fcb57600080fd5b610fd78c828d01610e29565b9750506060610fe88c828d01610e53565b9650506080610ff98c828d01610e53565b95505060a061100a8c828d01610dea565b94505060c061101b8c828d01610e68565b93505060e061102c8c828d01610e14565b92505061010061103e8c828d01610e14565b9150509295985092959850929598565b61105781611655565b82525050565b61106e61106982611655565b611727565b82525050565b61107d81611667565b82525050565b61108c81611673565b82525050565b600061109d826115c2565b6110a781856115d8565b93506110b78185602086016116c3565b80840191505092915050565b60006110ce826115cd565b6110d881856115e3565b93506110e88185602086016116c3565b6110f1816117b3565b840191505092915050565b6000611107826115cd565b61111181856115f4565b93506111218185602086016116c3565b80840191505092915050565b600061113a6026836115e3565b9150611145826117d1565b604082019050919050565b600061115d6009836115e3565b915061116882611820565b602082019050919050565b60006111806026836115e3565b915061118b82611849565b604082019050919050565b60006111a36015836115e3565b91506111ae82611898565b602082019050919050565b60006111c66020836115e3565b91506111d1826118c1565b602082019050919050565b60006111e9601d836115e3565b91506111f4826118ea565b602082019050919050565b600061120c602a836115e3565b915061121782611913565b604082019050919050565b600061122f600e836115e3565b915061123a82611962565b602082019050919050565b61124e8161169d565b82525050565b6112656112608261169d565b61174b565b82525050565b611274816116a7565b82525050565b60006112868284611092565b915081905092915050565b600061129d8288611254565b6020820191506112ad828761105d565b6014820191506112bd82866110fc565b91506112c98285611254565b6020820191506112d98284611254565b6020820191508190509695505050505050565b6000602082019050611301600083018461104e565b92915050565b600060608201905061131c600083018661104e565b611329602083018561104e565b6113366040830184611245565b949350505050565b6000604082019050611353600083018561104e565b6113606020830184611245565b9392505050565b600060208201905061137c6000830184611074565b92915050565b60006080820190506113976000830187611083565b6113a4602083018661126b565b6113b16040830185611083565b6113be6060830184611083565b95945050505050565b600060208201905081810360008301526113e181846110c3565b905092915050565b600060208201905081810360008301526114028161112d565b9050919050565b6000602082019050818103600083015261142281611150565b9050919050565b6000602082019050818103600083015261144281611173565b9050919050565b6000602082019050818103600083015261146281611196565b9050919050565b60006020820190508181036000830152611482816111b9565b9050919050565b600060208201905081810360008301526114a2816111dc565b9050919050565b600060208201905081810360008301526114c2816111ff565b9050919050565b600060208201905081810360008301526114e281611222565b9050919050565b60006040820190506114fe6000830185611245565b61150b602083018461104e565b9392505050565b600060a0820190506115276000830188611245565b818103602083015261153981876110c3565b90506115486040830186611245565b611555606083018561104e565b6115626080830184611245565b9695505050505050565b6000611576611587565b905061158282826116f6565b919050565b6000604051905090565b600067ffffffffffffffff8211156115ac576115ab611784565b5b6115b5826117b3565b9050602081019050919050565b600081519050919050565b600081519050919050565b600081905092915050565b600082825260208201905092915050565b600081905092915050565b600061160a8261169d565b91506116158361169d565b9250827fffffffffffffffffffffffffffffffffffffffffffffffffffffffffffffffff0382111561164a57611649611755565b5b828201905092915050565b60006116608261167d565b9050919050565b60008115159050919050565b6000819050919050565b600073ffffffffffffffffffffffffffffffffffffffff82169050919050565b6000819050919050565b600060ff82169050919050565b82818337600083830152505050565b60005b838110156116e15780820151818401526020810190506116c6565b838111156116f0576000848401525b50505050565b6116ff826117b3565b810181811067ffffffffffffffff8211171561171e5761171d611784565b5b80604052505050565b600061173282611739565b9050919050565b6000611744826117c4565b9050919050565b6000819050919050565b7f4e487b7100000000000000000000000000000000000000000000000000000000600052601160045260246000fd5b7f4e487b7100000000000000000000000000000000000000000000000000000000600052604160045260246000fd5b6000601f19601f8301169050919050565b60008160601b9050919050565b7f4f776e61626c653a206e6577206f776e657220697320746865207a65726f206160008201527f6464726573730000000000000000000000000000000000000000000000000000602082015250565b7f54696d6564206f75740000000000000000000000000000000000000000000000600082015250565b7f416464726573733a20696e73756666696369656e742062616c616e636520666f60008201527f722063616c6c0000000000000000000000000000000000000000000000000000602082015250565b7f4772616e7420616c726561647920636c61696d65640000000000000000000000600082015250565b7f4f776e61626c653a2063616c6c6572206973206e6f7420746865206f776e6572600082015250565b7f416464726573733a2063616c6c20746f206e6f6e2d636f6e7472616374000000600082015250565b7f5361666545524332303a204552433230206f7065726174696f6e20646964206e60008201527f6f74207375636365656400000000000000000000000000000000000000000000602082015250565b7f4e6f7420617574686f72697a6564000000000000000000000000000000000000600082015250565b61199481611655565b811461199f57600080fd5b50565b6119ab81611667565b81146119b657600080fd5b50565b6119c281611673565b81146119cd57600080fd5b50565b6119d98161169d565b81146119e457600080fd5b50565b6119f0816116a7565b81146119fb57600080fd5b5056fea2646970667358221220e081236acdbdd9dd9f7eefb11ac3e098ce543bf9e720d93473d4f64893fc3ddd64736f6c63430008040033",
  "linkReferences": {},
  "deployedLinkReferences": {}
}